{
  "_format": "hh-sol-artifact-1",
  "contractName": "EphemeralPoolTickBitmap",
  "sourceName": "contracts/EphemeralPoolTickBitmap.sol",
  "abi": [
    {
      "inputs": [
        {
          "internalType": "V3PoolCallee",
          "name": "pool",
          "type": "address"
        }
      ],
      "stateMutability": "payable",
      "type": "constructor"
    },
    {
      "inputs": [
        {
          "internalType": "V3PoolCallee",
          "name": "pool",
          "type": "address"
        }
      ],
      "name": "getTickBitmap",
      "outputs": [
        {
          "components": [
            {
              "internalType": "uint256",
              "name": "slot",
              "type": "uint256"
            },
            {
              "internalType": "uint256",
              "name": "data",
              "type": "uint256"
            }
          ],
          "internalType": "struct PoolUtils.Slot[]",
          "name": "slots",
          "type": "tuple[]"
        }
      ],
      "stateMutability": "payable",
      "type": "function"
    }
  ],
  "bytecode": "0x60806040526040516102f33803806102f383398101604081905261002291610224565b600061002d8261005b565b90506000816040516020016100429190610254565b6040516020818303038152906040529050805160208201fd5b60606000826001600160a01b031663d0c93a7c6040518163ffffffff1660e01b8152600401602060405180830381865afa15801561009d573d6000803e3d6000fd5b505050506040513d601f19601f820116820180604052508101906100c191906102a3565b9050600080620d89e71983810782139084900503600290810b600890811d91620d89e886810785139087900503900b901d9092509050600661ffff600184840301166001600160401b0381111561011a5761011a6102c6565b60405190808252806020026020018201604052801561015f57816020015b60408051808201909152600080825260208201528152602001906001900390816101385790505b509450825b8260010b8160010b136101d257600081815260208381526040918290208251808401909352808352919081016101a36001600160a01b038b16856101dc565b8152508786840361ffff16815181106101be576101be6102dc565b602090810291909101015250600101610164565b5050505050919050565b6000600182900b6101f88463299ce14b60e11b83856020610203565b505060005192915050565b8360005282600452808260246000885afa61021d57600080fd5b5050505050565b60006020828403121561023657600080fd5b81516001600160a01b038116811461024d57600080fd5b9392505050565b602080825282518282018190526000918401906040840190835b8181101561029857835180518452602090810151818501529093019260409092019160010161026e565b509095945050505050565b6000602082840312156102b557600080fd5b81518060020b811461024d57600080fd5b634e487b7160e01b600052604160045260246000fd5b634e487b7160e01b600052603260045260246000fdfe",
  "deployedBytecode": "0x60806040526004361061001e5760003560e01c8063666b5da314610023575b600080fd5b610036610031366004610271565b61004c565b60405161004391906102ae565b60405180910390f35b606060008273ffffffffffffffffffffffffffffffffffffffff1663d0c93a7c6040518163ffffffff1660e01b8152600401602060405180830381865afa15801561009b573d6000803e3d6000fd5b505050506040513d601f19601f820116820180604052508101906100bf91906102fd565b90507ffffffffffffffffffffffffffffffffffffffffffffffffffffffffffff2761881810760009081139183900591909103600290810b600890811d92620d89e8858107909113908590050390910b901d600661ffff6001848403011667ffffffffffffffff81111561013557610135610320565b60405190808252806020026020018201604052801561017a57816020015b60408051808201909152600080825260208201528152602001906001900390816101535790505b509450825b8260010b8160010b1361020657600081600052826020526040600020905060405180604001604052808281526020016101d7848b73ffffffffffffffffffffffffffffffffffffffff1661021090919063ffffffff16565b8152508786840361ffff16815181106101f2576101f261034f565b60209081029190910101525060010161017f565b5050505050919050565b6000600182900b610245847f5339c2960000000000000000000000000000000000000000000000000000000083856020610250565b505060005192915050565b8360005282600452808260246000885afa61026a57600080fd5b5050505050565b60006020828403121561028357600080fd5b813573ffffffffffffffffffffffffffffffffffffffff811681146102a757600080fd5b9392505050565b602080825282518282018190526000918401906040840190835b818110156102f25783518051845260209081015181850152909301926040909201916001016102c8565b509095945050505050565b60006020828403121561030f57600080fd5b81518060020b81146102a757600080fd5b7f4e487b7100000000000000000000000000000000000000000000000000000000600052604160045260246000fd5b7f4e487b7100000000000000000000000000000000000000000000000000000000600052603260045260246000fd",
  "linkReferences": {},
  "deployedLinkReferences": {}
}