{
  "_format": "hh-sol-artifact-1",
  "contractName": "EphemeralPoolSlots",
  "sourceName": "contracts/EphemeralPoolSlots.sol",
  "abi": [
    {
      "inputs": [
        {
          "internalType": "V3PoolCallee",
          "name": "pool",
          "type": "address"
        }
      ],
      "stateMutability": "payable",
      "type": "constructor"
    },
    {
      "inputs": [
        {
          "internalType": "V3PoolCallee",
          "name": "pool",
          "type": "address"
        }
      ],
      "name": "getSlots",
      "outputs": [
        {
          "components": [
            {
              "internalType": "uint256",
              "name": "slot",
              "type": "uint256"
            },
            {
              "internalType": "uint256",
              "name": "data",
              "type": "uint256"
            }
          ],
          "internalType": "struct PoolUtils.Slot[]",
          "name": "slots",
          "type": "tuple[]"
        }
      ],
      "stateMutability": "payable",
      "type": "function"
    }
  ],
  "bytecode": "0x608060405260405161056a38038061056a833981016040819052610022916104c5565b600061002d8261005b565b905060008160405160200161004291906104ee565b6040516020818303038152906040529050805160208201fd5b60606000808080808080806100786001600160a01b038b16610340565b61ffff84169e50959c50939a50919850965094509250905062ffffff60a01b60a087901b1660b886901b60c886901b60d886901b60e886901b60f086901b17171717178717600589016001600160401b038111156100d8576100d861053d565b60405190808252806020026020018201604052801561011d57816020015b60408051808201909152600080825260208201528152602001906001900390816100f65790505b509950604051806040016040528060008152602001828152508a60008151811061014957610149610553565b60200260200101819052505050505050505050604051806040016040528060018152602001610186856001600160a01b03166103a860201b60201c565b8152508260018151811061019c5761019c610553565b60200260200101819052506040518060400160405280600281526020016101d1856001600160a01b03166103c160201b60201c565b815250826002815181106101e7576101e7610553565b60209081029190910101526000806102076001600160a01b0386166103d4565b915091506000828260801b179050604051806040016040528060038152602001828152508560038151811061023e5761023e610553565b6020026020010181905250505050604051806040016040528060048152602001610276856001600160a01b03166103f660201b60201c565b6001600160801b03168152508260048151811061029557610295610553565b602002602001018190525060005b818110156103395760008080806102c36001600160a01b03891686610411565b935093509350935060008160f81b9050808360581b179050808466ffffffffffffff1660201b179050808517905060405180604001604052808760080181526020018281525088876005018151811061031e5761031e610553565b602002602001018190525050505050508060010190506102a3565b5050919050565b600080600080600080600080633850c7bd60e01b90506040518160005260e081600460008d5afa61037057600080fd5b8051602082015160408301516060840151608085015160a086015160c090960151949f939e50919c509a509850919650945092505050565b60006103bb8263f305839960e01b610454565b92915050565b60006103bb82634614131960e01b610454565b60008080806103ea85631ad8b03b60e01b610478565b90969095509350505050565b60008061040a83630d34328160e11b610454565b9392505050565b6040516000908190819081906104328763252c09d760e01b888460806104a4565b8051602082015160408301516060909301519199909850919650945092505050565b6000816000526020600060046000865afa61046e57600080fd5b5050600051919050565b600080826000526040600060046000875afa61049357600080fd5b600051915060205190509250929050565b8360005282600452808260246000885afa6104be57600080fd5b5050505050565b6000602082840312156104d757600080fd5b81516001600160a01b038116811461040a57600080fd5b602080825282518282018190526000918401906040840190835b81811015610532578351805184526020908101518185015290930192604090920191600101610508565b509095945050505050565b634e487b7160e01b600052604160045260246000fd5b634e487b7160e01b600052603260045260246000fdfe",
  "deployedBytecode": "0x60806040526004361061001e5760003560e01c80631d36f0f014610023575b600080fd5b61003661003136600461058d565b61004c565b60405161004391906105c3565b60405180910390f35b60606000806000806000806000806100798a73ffffffffffffffffffffffffffffffffffffffff1661038b565b61ffff84169e50959c50939a50919850965094509250905076ffffff000000000000000000000000000000000000000060a087901b1660b886901b60c886901b60d886901b60e886901b60f086901b171717171787176005890167ffffffffffffffff8111156100eb576100eb610612565b60405190808252806020026020018201604052801561013057816020015b60408051808201909152600080825260208201528152602001906001900390816101095790505b509950604051806040016040528060008152602001828152508a60008151811061015c5761015c610641565b602002602001018190525050505050505050506040518060400160405280600181526020016101a08573ffffffffffffffffffffffffffffffffffffffff166103f3565b815250826001815181106101b6576101b6610641565b60200260200101819052506040518060400160405280600281526020016101f28573ffffffffffffffffffffffffffffffffffffffff16610425565b8152508260028151811061020857610208610641565b60200260200101819052506000806102358573ffffffffffffffffffffffffffffffffffffffff16610451565b915091506000828260801b179050604051806040016040528060038152602001828152508560038151811061026c5761026c610641565b60200260200101819052505050506040518060400160405280600481526020016102ab8573ffffffffffffffffffffffffffffffffffffffff1661048c565b6fffffffffffffffffffffffffffffffff16815250826004815181106102d3576102d3610641565b602002602001018190525060005b8181101561038457600080808061030e73ffffffffffffffffffffffffffffffffffffffff8916866104c0565b935093509350935060008160f81b9050808360581b179050808466ffffffffffffff1660201b179050808517905060405180604001604052808760080181526020018281525088876005018151811061036957610369610641565b602002602001018190525050505050508060010190506102e1565b5050919050565b600080600080600080600080633850c7bd60e01b90506040518160005260e081600460008d5afa6103bb57600080fd5b8051602082015160408301516060840151608085015160a086015160c090960151949f939e50919c509a509850919650945092505050565b600061041f827ff30583990000000000000000000000000000000000000000000000000000000061051c565b92915050565b600061041f827f461413190000000000000000000000000000000000000000000000000000000061051c565b6000808080610480857f1ad8b03b00000000000000000000000000000000000000000000000000000000610540565b90969095509350505050565b6000806104b9837f1a6865020000000000000000000000000000000000000000000000000000000061051c565b9392505050565b6040516000908190819081906104fa877f252c09d7000000000000000000000000000000000000000000000000000000008884608061056c565b8051602082015160408301516060909301519199909850919650945092505050565b6000816000526020600060046000865afa61053657600080fd5b5050600051919050565b600080826000526040600060046000875afa61055b57600080fd5b600051915060205190509250929050565b8360005282600452808260246000885afa61058657600080fd5b5050505050565b60006020828403121561059f57600080fd5b813573ffffffffffffffffffffffffffffffffffffffff811681146104b957600080fd5b602080825282518282018190526000918401906040840190835b818110156106075783518051845260209081015181850152909301926040909201916001016105dd565b509095945050505050565b7f4e487b7100000000000000000000000000000000000000000000000000000000600052604160045260246000fd5b7f4e487b7100000000000000000000000000000000000000000000000000000000600052603260045260246000fd",
  "linkReferences": {},
  "deployedLinkReferences": {}
}