{
  "_format": "hh-sol-artifact-1",
  "contractName": "EphemeralPoolTicks",
  "sourceName": "contracts/EphemeralPoolTicks.sol",
  "abi": [
    {
      "inputs": [
        {
          "internalType": "V3PoolCallee",
          "name": "pool",
          "type": "address"
        },
        {
          "internalType": "int24",
          "name": "tickLower",
          "type": "int24"
        },
        {
          "internalType": "int24",
          "name": "tickUpper",
          "type": "int24"
        }
      ],
      "stateMutability": "payable",
      "type": "constructor"
    },
    {
      "inputs": [
        {
          "internalType": "V3PoolCallee",
          "name": "pool",
          "type": "address"
        },
        {
          "internalType": "int24",
          "name": "tickLower",
          "type": "int24"
        },
        {
          "internalType": "int24",
          "name": "tickUpper",
          "type": "int24"
        }
      ],
      "name": "getPopulatedTicksInRange",
      "outputs": [
        {
          "components": [
            {
              "internalType": "uint256",
              "name": "slot",
              "type": "uint256"
            },
            {
              "internalType": "uint256",
              "name": "data",
              "type": "uint256"
            }
          ],
          "internalType": "struct PoolUtils.Slot[]",
          "name": "slots",
          "type": "tuple[]"
        }
      ],
      "stateMutability": "payable",
      "type": "function"
    }
  ],
  "bytecode": "0x608060405260405161073f38038061073f833981016040819052610022916105bb565b600061002f84848461005d565b9050600081604051602001610044919061060c565b6040516020818303038152906040529050805160208201fd5b60608160020b8360020b131561007257600080fd5b6000846001600160a01b031663d0c93a7c6040518163ffffffff1660e01b8152600401602060405180830381865afa1580156100b2573d6000803e3d6000fd5b505050506040513d601f19601f820116820180604052508101906100d6919061065b565b9050808407600090811382860503600290810b600890811d9284870781138588050390920b901d908061010a8985856101ce565b91509150600281901b6001600160401b0381111561012a5761012a61067d565b60405190808252806020026020018201604052801561016f57816020015b60408051808201909152600080825260208201528152602001906001900390816101485790505b5095506000845b8460010b8160010b136101c0576101b68b8289878a860361ffff16815181106101a1576101a1610693565b60200260200101518c8761035160201b60201c565b9150600101610176565b505050505050509392505050565b606060006101dc84846106bf565b6101e79060016106e8565b61ffff166001600160401b038111156102025761020261067d565b60405190808252806020026020018201604052801561022b578160200160208202803683370190505b509150835b8360010b8160010b136103485760006102526001600160a01b038816836104f7565b9050808461026088856106bf565b61ffff168151811061027457610274610693565b60209081029190910101527f0f0f0f0f0f0f0f0f0f0f0f0f0f0f0f0f0f0f0f0f0f0f0f0f0f0f0f0f0f0f0f0f7f5555555555555555555555555555555555555555555555555555555555555555600183901c168203600281901c7f3333333333333333333333333333333333333333333333333333333333333333908116911601600481901c01167f01010101010101010101010101010101010101010101010101010101010101010260f81c600019821460081b17610334908461070b565b925050806103419061071e565b9050610230565b50935093915050565b60006005815b6101008110156104ea576001811b8616156104e257600888901b81018702600061038a6001600160a01b038c168361051e565b60008381526020868152604091829020835182850151845180860190955282855260801b179183018290528a5160018b81019b959650909101939192918b9181106103d7576103d7610693565b6020026020010181905250506040518060400160405280828060010193508152602001836040015181525088888060010199508151811061041a5761041a610693565b60200260200101819052506040518060400160405280828060010193508152602001836060015181525088888060010199508151811061045c5761045c610693565b6020026020010181905250600060e08301518060f81b91505060c0830151818160d81b1791505060a0830151818160381b17915050608083015166ffffffffffffff168181179150506040518060400160405280838152602001828152508989806001019a50815181106104d2576104d2610693565b6020026020010181905250505050505b600101610357565b5091979650505050505050565b6000600182900b6105138463299ce14b60e11b83856020610583565b505060005192915050565b6040805161010081018252600080825260208201819052918101829052606081018290526080810182905260a0810182905260c0810182905260e0810191909152600282900b8161057b8563f30dba9360e01b8484610100610583565b505092915050565b8360005282600452808260246000885afa61059d57600080fd5b5050505050565b8051600281900b81146105b657600080fd5b919050565b6000806000606084860312156105d057600080fd5b83516001600160a01b03811681146105e757600080fd5b92506105f5602085016105a4565b9150610603604085016105a4565b90509250925092565b602080825282518282018190526000918401906040840190835b81811015610650578351805184526020908101518185015290930192604090920191600101610626565b509095945050505050565b60006020828403121561066d57600080fd5b610676826105a4565b9392505050565b634e487b7160e01b600052604160045260246000fd5b634e487b7160e01b600052603260045260246000fd5b634e487b7160e01b600052601160045260246000fd5b600182810b9082900b03617fff198112617fff821317156106e2576106e26106a9565b92915050565b600181810b9083900b01617fff8113617fff19821217156106e2576106e26106a9565b808201808211156106e2576106e26106a9565b60008160010b617fff8103610735576107356106a9565b6001019291505056fe",
  "deployedBytecode": "0x60806040526004361061001e5760003560e01c8063f2bb008b14610023575b600080fd5b610036610031366004610618565b61004c565b604051610043919061067c565b60405180910390f35b60608160020b8360020b131561006157600080fd5b60008473ffffffffffffffffffffffffffffffffffffffff1663d0c93a7c6040518163ffffffff1660e01b8152600401602060405180830381865afa1580156100ae573d6000803e3d6000fd5b505050506040513d601f19601f820116820180604052508101906100d291906106cb565b9050808407600090811382860503600290810b600890811d9284870781138588050390920b901d90806101068985856101c5565b91509150600281901b67ffffffffffffffff811115610127576101276106ef565b60405190808252806020026020018201604052801561016c57816020015b60408051808201909152600080825260208201528152602001906001900390816101455790505b5095506000845b8460010b8160010b136101b7576101ad8b8289878a860361ffff168151811061019e5761019e61071e565b60200260200101518c87610374565b9150600101610173565b505050505050509392505050565b606060006101d3848461077c565b6101de9060016107c2565b61ffff1667ffffffffffffffff8111156101fa576101fa6106ef565b604051908082528060200260200182016040528015610223578160200160208202803683370190505b509150835b8360010b8160010b1361036b57600061025773ffffffffffffffffffffffffffffffffffffffff881683610527565b90508084610265888561077c565b61ffff16815181106102795761027961071e565b60209081029190910101527f0f0f0f0f0f0f0f0f0f0f0f0f0f0f0f0f0f0f0f0f0f0f0f0f0f0f0f0f0f0f0f0f7f5555555555555555555555555555555555555555555555555555555555555555600183901c168203600281901c7f3333333333333333333333333333333333333333333333333333333333333333908116911601600481901c01167f01010101010101010101010101010101010101010101010101010101010101010260f81c7fffffffffffffffffffffffffffffffffffffffffffffffffffffffffffffffff821460081b176103579084610802565b9250508061036490610815565b9050610228565b50935093915050565b60006005815b61010081101561051a576001811b86161561051257600888901b8101870260006103ba73ffffffffffffffffffffffffffffffffffffffff8c1683610567565b60008381526020868152604091829020835182850151845180860190955282855260801b179183018290528a5160018b81019b959650909101939192918b9181106104075761040761071e565b6020026020010181905250506040518060400160405280828060010193508152602001836040015181525088888060010199508151811061044a5761044a61071e565b60200260200101819052506040518060400160405280828060010193508152602001836060015181525088888060010199508151811061048c5761048c61071e565b6020026020010181905250600060e08301518060f81b91505060c0830151818160d81b1791505060a0830151818160381b17915050608083015166ffffffffffffff168181179150506040518060400160405280838152602001828152508989806001019a50815181106105025761050261071e565b6020026020010181905250505050505b60010161037a565b5091979650505050505050565b6000600182900b61055c847f5339c29600000000000000000000000000000000000000000000000000000000838560206105e5565b505060005192915050565b6040805161010081018252600080825260208201819052918101829052606081018290526080810182905260a0810182905260c0810182905260e0810191909152600282900b816105dd857ff30dba930000000000000000000000000000000000000000000000000000000084846101006105e5565b505092915050565b8360005282600452808260246000885afa6105ff57600080fd5b5050505050565b8060020b811461061557600080fd5b50565b60008060006060848603121561062d57600080fd5b833573ffffffffffffffffffffffffffffffffffffffff8116811461065157600080fd5b9250602084013561066181610606565b9150604084013561067181610606565b809150509250925092565b602080825282518282018190526000918401906040840190835b818110156106c0578351805184526020908101518185015290930192604090920191600101610696565b509095945050505050565b6000602082840312156106dd57600080fd5b81516106e881610606565b9392505050565b7f4e487b7100000000000000000000000000000000000000000000000000000000600052604160045260246000fd5b7f4e487b7100000000000000000000000000000000000000000000000000000000600052603260045260246000fd5b7f4e487b7100000000000000000000000000000000000000000000000000000000600052601160045260246000fd5b600182810b9082900b037fffffffffffffffffffffffffffffffffffffffffffffffffffffffffffff80008112617fff821317156107bc576107bc61074d565b92915050565b600181810b9083900b01617fff81137fffffffffffffffffffffffffffffffffffffffffffffffffffffffffffff8000821217156107bc576107bc61074d565b808201808211156107bc576107bc61074d565b60008160010b617fff810361082c5761082c61074d565b6001019291505056",
  "linkReferences": {},
  "deployedLinkReferences": {}
}