{
  "_format": "hh-sol-artifact-1",
  "contractName": "PositionLens",
  "sourceName": "contracts/PositionLens.sol",
  "abi": [
    {
      "inputs": [
        {
          "internalType": "V3PoolCallee",
          "name": "pool",
          "type": "address"
        },
        {
          "internalType": "address",
          "name": "owner",
          "type": "address"
        },
        {
          "internalType": "int24",
          "name": "tickLower",
          "type": "int24"
        },
        {
          "internalType": "int24",
          "name": "tickUpper",
          "type": "int24"
        }
      ],
      "name": "getFeesOwed",
      "outputs": [
        {
          "internalType": "uint128",
          "name": "tokensOwed0",
          "type": "uint128"
        },
        {
          "internalType": "uint128",
          "name": "tokensOwed1",
          "type": "uint128"
        }
      ],
      "stateMutability": "view",
      "type": "function"
    },
    {
      "inputs": [
        {
          "internalType": "V3PoolCallee",
          "name": "pool",
          "type": "address"
        },
        {
          "internalType": "address",
          "name": "owner",
          "type": "address"
        },
        {
          "internalType": "int24",
          "name": "tickLower",
          "type": "int24"
        },
        {
          "internalType": "int24",
          "name": "tickUpper",
          "type": "int24"
        }
      ],
      "name": "getTotalAmounts",
      "outputs": [
        {
          "internalType": "uint256",
          "name": "amount0",
          "type": "uint256"
        },
        {
          "internalType": "uint256",
          "name": "amount1",
          "type": "uint256"
        }
      ],
      "stateMutability": "view",
      "type": "function"
    }
  ],
  "bytecode": "0x6080604052348015600f57600080fd5b50610c848061001f6000396000f3fe608060405234801561001057600080fd5b50600436106100365760003560e01c806395ba51bd1461003b578063c6a6366514610068575b600080fd5b61004e610049366004610bf2565b6100a4565b604080519283526020830191909152015b60405180910390f35b61007b610076366004610bf2565b6101da565b604080516fffffffffffffffffffffffffffffffff93841681529290911660208301520161005f565b60008060006100ff60405180606001604052808873ffffffffffffffffffffffffffffffffffffffff1681526020018760020b81526020018660020b8152506040810151600652602081015160035251600052601a600c2090565b9050600061012373ffffffffffffffffffffffffffffffffffffffff8916836102d8565b905060006101468973ffffffffffffffffffffffffffffffffffffffff16610339565b5082519091506fffffffffffffffffffffffffffffffff16156101ce57610186816101738960020b610374565b61017f8960020b610374565b8551610660565b909550935060008061019a8b8b8b8b6101da565b6fffffffffffffffffffffffffffffffff91821693501690506101bd8288610c4a565b96506101c98187610c4a565b955050505b50505094509492505050565b600080600061023560405180606001604052808873ffffffffffffffffffffffffffffffffffffffff1681526020018760020b81526020018660020b8152506040810151600652602081015160035251600052601a600c2090565b9050600061025973ffffffffffffffffffffffffffffffffffffffff8916836102d8565b9050600061027c8973ffffffffffffffffffffffffffffffffffffffff16610339565b83519092506fffffffffffffffffffffffffffffffff161590506101ce576000806102a98b8a8a8661070d565b915091506102c68460000151838387602001518860400151610816565b909c909b509950505050505050505050565b6040805160a08101825260008082526020820181905291810182905260608101829052608081019190915280610332847f514ea4bf00000000000000000000000000000000000000000000000000000000858460a0610887565b5092915050565b6000808080610368857f3850c7bd000000000000000000000000000000000000000000000000000000006108a8565b90969095509350505050565b60008160ff81901d80820118620d89e88111156103a3576308c379a0600052602080526101546041526045601cfd5b7001fffcb933bd6fad37aa2d162d1a59400160018216027001000000000000000000000000000000001860028216156103ec576ffff97272373d413259a46990580e213a0260801c5b600482161561040b576ffff2e50f5f656932ef12357cf3c7fdcc0260801c5b600882161561042a576fffe5caca7e10e4e61c3624eaa0941cd00260801c5b6010821615610449576fffcb9843d60f6159c9db58835c9266440260801c5b6020821615610468576fff973b41fa98c081472e6896dfb254c00260801c5b6040821615610487576fff2ea16466c96a3843ec78b326b528610260801c5b60808216156104a6576ffe5dee046a99a2a811c461f1969c30530260801c5b6101008216156104c6576ffcbe86c7900a88aedcffc83b479aa3a40260801c5b6102008216156104e6576ff987a7253ac413176f2b074cf7815e540260801c5b610400821615610506576ff3392b0822b70005940c7a398e4b70f30260801c5b610800821615610526576fe7159475a2c29b7443b29c7fa6e889d90260801c5b611000821615610546576fd097f3bdfd2022b8845ad8f792aa58250260801c5b612000821615610566576fa9f746462d870fdf8a65dc1f90e061e50260801c5b614000821615610586576f70d869a156d2a1b890bb3df62baf32f70260801c5b6180008216156105a6576f31be135f97d08fd981231505542fcfa60260801c5b620100008216156105c7576f09aa508b5b7a84e1c677de54f3e99bc90260801c5b620200008216156105e7576e5d6af8dedb81196699c329225ee6040260801c5b62040000821615610606576d2216e584f5fa1ea926041bedfe980260801c5b62080000821615610623576b048a170391f7dc42444e8fa20260801c5b600085131561064f577fffffffffffffffffffffffffffffffffffffffffffffffffffffffffffffffff045b63ffffffff0160201c949350505050565b82821083831802928318929091189060008073ffffffffffffffffffffffffffffffffffffffff808616908716116106a45761069d8585856108d4565b9150610704565b8373ffffffffffffffffffffffffffffffffffffffff168673ffffffffffffffffffffffffffffffffffffffff16116106f6576106e28685856108d4565b91506106ef858785610950565b9050610704565b610701858585610950565b90505b94509492505050565b6000808061073173ffffffffffffffffffffffffffffffffffffffff881687610986565b9050600061075573ffffffffffffffffffffffffffffffffffffffff891687610986565b90508660020b8560020b121561078457806040015182604001510393508060600151826060015103925061080b565b8560020b8560020b126107b057816040015181604001510393508160600151816060015103925061080b565b806040015182604001516107d98a73ffffffffffffffffffffffffffffffffffffffff16610a04565b03039350806060015182606001516108068a73ffffffffffffffffffffffffffffffffffffffff16610a36565b030392505b505094509492505050565b6000806108496fffffffffffffffffffffffffffffffff8816858803700100000000000000000000000000000000610a62565b915061087b6fffffffffffffffffffffffffffffffff8816848703700100000000000000000000000000000000610a62565b90509550959350505050565b8360005282600452808260246000885afa6108a157600080fd5b5050505050565b600080826000526040600060046000875afa6108c357600080fd5b600051915060205190509250929050565b60006109468473ffffffffffffffffffffffffffffffffffffffff16610942606060ff16856fffffffffffffffffffffffffffffffff16901b87870373ffffffffffffffffffffffffffffffffffffffff168773ffffffffffffffffffffffffffffffffffffffff16610a62565b0490565b90505b9392505050565b6000610946826fffffffffffffffffffffffffffffffff1685850373ffffffffffffffffffffffffffffffffffffffff16610a6f565b6040805161010081018252600080825260208201819052918101829052606081018290526080810182905260a0810182905260c0810182905260e0810191909152600282900b816109fc857ff30dba93000000000000000000000000000000000000000000000000000000008484610100610887565b505092915050565b6000610a30827ff305839900000000000000000000000000000000000000000000000000000000610ad4565b92915050565b6000610a30827f4614131900000000000000000000000000000000000000000000000000000000610ad4565b6000610946848484610af8565b60008282027fffffffffffffffffffffffffffffffffffffffffffffffffffffffffffffffff838509818110820190036c010000000000000000000000008110610ac15763ae47f7026000526004601cfd5b8060a01b8260601c179250505092915050565b6000816000526020600060046000865afa610aee57600080fd5b5050600051919050565b8282027fffffffffffffffffffffffffffffffffffffffffffffffffffffffffffffffff8385098181108201900380610b475782610b3e5763ae47f7026000526004601cfd5b50819004610949565b808311610b5c5763ae47f7026000526004601cfd5b82848609600084810385169485900494848311909303908390038390046001010292030417600260038302811880840282030280840282030280840282030280840282030280840282030280840290910302029392505050565b73ffffffffffffffffffffffffffffffffffffffff81168114610bd857600080fd5b50565b8035600281900b8114610bed57600080fd5b919050565b60008060008060808587031215610c0857600080fd5b8435610c1381610bb6565b93506020850135610c2381610bb6565b9250610c3160408601610bdb565b9150610c3f60608601610bdb565b905092959194509250565b80820180821115610a30577f4e487b7100000000000000000000000000000000000000000000000000000000600052601160045260246000fd",
  "linkReferences": {},
  "deployedLinkReferences": {}
}