{
  "_format": "hh-sol-artifact-1",
  "contractName": "EphemeralGetPosition",
  "sourceName": "contracts/EphemeralGetPosition.sol",
  "abi": [
    {
      "inputs": [
        {
          "internalType": "contract IUniswapV3NonfungiblePositionManager",
          "name": "npm",
          "type": "address"
        },
        {
          "internalType": "uint256",
          "name": "tokenId",
          "type": "uint256"
        }
      ],
      "stateMutability": "payable",
      "type": "constructor"
    },
    {
      "inputs": [
        {
          "internalType": "contract IUniswapV3NonfungiblePositionManager",
          "name": "npm",
          "type": "address"
        },
        {
          "internalType": "uint256",
          "name": "tokenId",
          "type": "uint256"
        }
      ],
      "name": "getPosition",
      "outputs": [
        {
          "components": [
            {
              "internalType": "uint256",
              "name": "tokenId",
              "type": "uint256"
            },
            {
              "internalType": "address",
              "name": "owner",
              "type": "address"
            },
            {
              "components": [
                {
                  "internalType": "uint96",
                  "name": "nonce",
                  "type": "uint96"
                },
                {
                  "internalType": "address",
                  "name": "operator",
                  "type": "address"
                },
                {
                  "internalType": "address",
                  "name": "token0",
                  "type": "address"
                },
                {
                  "internalType": "address",
                  "name": "token1",
                  "type": "address"
                },
                {
                  "internalType": "uint24",
                  "name": "fee",
                  "type": "uint24"
                },
                {
                  "internalType": "int24",
                  "name": "tickLower",
                  "type": "int24"
                },
                {
                  "internalType": "int24",
                  "name": "tickUpper",
                  "type": "int24"
                },
                {
                  "internalType": "uint128",
                  "name": "liquidity",
                  "type": "uint128"
                },
                {
                  "internalType": "uint256",
                  "name": "feeGrowthInside0LastX128",
                  "type": "uint256"
                },
                {
                  "internalType": "uint256",
                  "name": "feeGrowthInside1LastX128",
                  "type": "uint256"
                },
                {
                  "internalType": "uint128",
                  "name": "tokensOwed0",
                  "type": "uint128"
                },
                {
                  "internalType": "uint128",
                  "name": "tokensOwed1",
                  "type": "uint128"
                }
              ],
              "internalType": "struct PositionFull",
              "name": "position",
              "type": "tuple"
            },
            {
              "components": [
                {
                  "internalType": "uint160",
                  "name": "sqrtPriceX96",
                  "type": "uint160"
                },
                {
                  "internalType": "int24",
                  "name": "tick",
                  "type": "int24"
                },
                {
                  "internalType": "uint16",
                  "name": "observationIndex",
                  "type": "uint16"
                },
                {
                  "internalType": "uint16",
                  "name": "observationCardinality",
                  "type": "uint16"
                },
                {
                  "internalType": "uint16",
                  "name": "observationCardinalityNext",
                  "type": "uint16"
                },
                {
                  "internalType": "uint32",
                  "name": "feeProtocol",
                  "type": "uint32"
                },
                {
                  "internalType": "bool",
                  "name": "unlocked",
                  "type": "bool"
                }
              ],
              "internalType": "struct Slot0",
              "name": "slot0",
              "type": "tuple"
            },
            {
              "internalType": "uint128",
              "name": "activeLiquidity",
              "type": "uint128"
            },
            {
              "internalType": "uint8",
              "name": "decimals0",
              "type": "uint8"
            },
            {
              "internalType": "uint8",
              "name": "decimals1",
              "type": "uint8"
            }
          ],
          "internalType": "struct PositionState",
          "name": "state",
          "type": "tuple"
        }
      ],
      "stateMutability": "payable",
      "type": "function"
    }
  ],
  "bytecode": "0x6080604052604051610913380380610913833981016040819052610022916106cd565b600061002e838361005c565b90506000816040516020016100439190610769565b6040516020818303038152906040529050805160208201fd5b61012b6040805160e0808201835260008083526020808401829052845161018081018652828152908101829052808501829052606081018290526080810182905260a0810182905260c08101829052918201819052610100820181905261012082018190526101408201819052610160820152909182019081526040805160e08101825260008082526020828101829052928201819052606082018190526080820181905260a0820181905260c082015291019081526000602082018190526040820181905260609091015290565b6101358383610167565b6001600160a01b0316602082015260408101516101559084908490610184565b506101618383836101aa565b92915050565b60008061017c846331a9108f60e11b8561036f565b949350505050565b63133f757160e31b600081815260048490529061018083602484885afa95945050505050565b818152604081015160006101bd8561039d565b604080840151606085015160808601519251630b4c774160e11b81526001600160a01b039283166004820152908216602482015262ffffff90921660448301529190911690631698ee8290606401602060405180830381865afa158015610228573d6000803e3d6000fd5b505050506040513d601f19601f8201168201806040525081019061024c91906108c8565b90506102606001600160a01b0382166103b8565b6001600160801b03166080840152606083015161027e9082906103cc565b60e08201516001600160801b031615610327576000806102b6838560a001518660c001518860600151602001516103f260201b60201c565b915091506000806102de8660e0015185858961010001518a61012001516104cd60201b60201c565b915091508186610140018181516102f591906108e5565b6001600160801b0316905250610160860180518291906103169083906108e5565b6001600160801b0316905250505050505b604082015161033e906001600160a01b0316610512565b60ff1660a0840152606082015161035d906001600160a01b0316610512565b60ff1660c09093019290925250505050565b600082600052816004526020600060246000875afa610392573d6000803e3d6000fd5b505060005192915050565b6000806103b18363c45a015560e01b610538565b9392505050565b6000806103b183630d34328160e11b610538565b633850c7bd60e01b600081815260e0908390600490865afa6103ed57600080fd5b505050565b600080806104096001600160a01b0388168761055c565b905060006104206001600160a01b0389168761055c565b90508660020b8560020b121561044f5780604001518260400151039350806060015182606001510392506104c2565b8560020b8560020b1261047b5781604001518160400151039350816060015181606001510392506104c2565b604080820151908301516104976001600160a01b038b166105c1565b03039350806060015182606001516104bd8a6001600160a01b03166105d460201b60201c565b030392505b505094509492505050565b6000806104ea6001600160801b038816858803600160801b6105e7565b91506105066001600160801b038816848703600160801b6105e7565b90509550959350505050565b6012600090815263313ce56760e01b602081815280600481865afa60051b519392505050565b6000816000526020600060046000865afa61055257600080fd5b5050600051919050565b6040805161010081018252600080825260208201819052918101829052606081018290526080810182905260a0810182905260c0810182905260e0810191909152600282900b816105b98563f30dba9360e01b84846101006105f4565b505092915050565b60006101618263f305839960e01b610538565b600061016182634614131960e01b610538565b600061017c848484610615565b8360005282600452808260246000885afa61060e57600080fd5b5050505050565b8282026000198385098181108201900380610646578261063d5763ae47f7026000526004601cfd5b508190046103b1565b80831161065b5763ae47f7026000526004601cfd5b82848609600084810385169485900494848311909303908390038390046001010292030417600260038302811880840282030280840282030280840282030280840282030280840282030280840290910302029392505050565b6001600160a01b03811681146106ca57600080fd5b50565b600080604083850312156106e057600080fd5b82516106eb816106b5565b6020939093015192949293505050565b60018060a01b038151168252602081015160020b602083015261ffff604082015116604083015261ffff606082015116606083015261ffff608082015116608083015260a081015161075560a084018263ffffffff169052565b5060c08101516103ed60c084018215159052565b815181526020808301516001600160a01b03169082015260408083015180516103008401926107a391908501906001600160601b03169052565b60208101516001600160a01b03811660608501525060408101516001600160a01b03811660808501525060608101516001600160a01b03811660a085015250608081015162ffffff811660c08501525060a081015161080760e085018260020b9052565b5060c081015161081d61010085018260020b9052565b5060e08101516001600160801b038116610120850152506101008101516101408401526101208101516101608401526101408101516108686101808501826001600160801b03169052565b5061016001516001600160801b03166101a083015260608301516108906101c08401826106fb565b5060808301516001600160801b03166102a083015260a083015160ff9081166102c084015260c0909301519092166102e09091015290565b6000602082840312156108da57600080fd5b81516103b1816106b5565b6001600160801b03818116838216019081111561016157634e487b7160e01b600052601160045260246000fdfe",
  "deployedBytecode": "0x60806040526004361061001e5760003560e01c80633adbb5af14610023575b600080fd5b610036610031366004610894565b61004c565b604051610043919061093c565b60405180910390f35b61011b6040805160e0808201835260008083526020808401829052845161018081018652828152908101829052808501829052606081018290526080810182905260a0810182905260c08101829052918201819052610100820181905261012082018190526101408201819052610160820152909182019081526040805160e08101825260008082526020828101829052928201819052606082018190526080820181905260a0820181905260c082015291019081526000602082018190526040820181905260609091015290565b6101258383610164565b73ffffffffffffffffffffffffffffffffffffffff1660208201526040810151610152908490849061019a565b5061015e8383836101d9565b92915050565b600080610192847f6352211e0000000000000000000000000000000000000000000000000000000085610402565b949350505050565b7f99fbab8800000000000000000000000000000000000000000000000000000000600081815260048490529061018083602484885afa95945050505050565b818152604081015160006101ec85610430565b6040808401516060850151608086015192517f1698ee8200000000000000000000000000000000000000000000000000000000815273ffffffffffffffffffffffffffffffffffffffff9283166004820152908216602482015262ffffff90921660448301529190911690631698ee8290606401602060405180830381865afa15801561027d573d6000803e3d6000fd5b505050506040513d601f19601f820116820180604052508101906102a19190610af9565b90506102c28173ffffffffffffffffffffffffffffffffffffffff16610464565b6fffffffffffffffffffffffffffffffff16608084015260608301516102e9908290610491565b60e08201516fffffffffffffffffffffffffffffffff16156103a157600080610324838560a001518660c001518860600151602001516104d0565b915091506000806103468660e0015185858961010001518a61012001516105d9565b9150915081866101400181815161035d9190610b16565b6fffffffffffffffffffffffffffffffff1690525061016086018051829190610387908390610b16565b6fffffffffffffffffffffffffffffffff16905250505050505b6103c4826040015173ffffffffffffffffffffffffffffffffffffffff1661064a565b60ff1660a084015260608201516103f09073ffffffffffffffffffffffffffffffffffffffff1661064a565b60ff1660c09093019290925250505050565b600082600052816004526020600060246000875afa610425573d6000803e3d6000fd5b505060005192915050565b60008061045d837fc45a015500000000000000000000000000000000000000000000000000000000610689565b9392505050565b60008061045d837f1a68650200000000000000000000000000000000000000000000000000000000610689565b7f3850c7bd00000000000000000000000000000000000000000000000000000000600081815260e0908390600490865afa6104cb57600080fd5b505050565b600080806104f473ffffffffffffffffffffffffffffffffffffffff8816876106ad565b9050600061051873ffffffffffffffffffffffffffffffffffffffff8916876106ad565b90508660020b8560020b12156105475780604001518260400151039350806060015182606001510392506105ce565b8560020b8560020b126105735781604001518160400151039350816060015181606001510392506105ce565b8060400151826040015161059c8a73ffffffffffffffffffffffffffffffffffffffff1661072b565b03039350806060015182606001516105c98a73ffffffffffffffffffffffffffffffffffffffff16610757565b030392505b505094509492505050565b60008061060c6fffffffffffffffffffffffffffffffff8816858803700100000000000000000000000000000000610783565b915061063e6fffffffffffffffffffffffffffffffff8816848703700100000000000000000000000000000000610783565b90509550959350505050565b601260009081527f313ce56700000000000000000000000000000000000000000000000000000000602081815280600481865afa60051b519392505050565b6000816000526020600060046000865afa6106a357600080fd5b5050600051919050565b6040805161010081018252600080825260208201819052918101829052606081018290526080810182905260a0810182905260c0810182905260e0810191909152600282900b81610723857ff30dba93000000000000000000000000000000000000000000000000000000008484610100610790565b505092915050565b600061015e827ff305839900000000000000000000000000000000000000000000000000000000610689565b600061015e827f4614131900000000000000000000000000000000000000000000000000000000610689565b60006101928484846107b1565b8360005282600452808260246000885afa6107aa57600080fd5b5050505050565b8282027fffffffffffffffffffffffffffffffffffffffffffffffffffffffffffffffff838509818110820190038061080057826107f75763ae47f7026000526004601cfd5b5081900461045d565b8083116108155763ae47f7026000526004601cfd5b82848609600084810385169485900494848311909303908390038390046001010292030417600260038302811880840282030280840282030280840282030280840282030280840282030280840290910302029392505050565b73ffffffffffffffffffffffffffffffffffffffff8116811461089157600080fd5b50565b600080604083850312156108a757600080fd5b82356108b28161086f565b946020939093013593505050565b73ffffffffffffffffffffffffffffffffffffffff8151168252602081015160020b602083015261ffff604082015116604083015261ffff606082015116606083015261ffff608082015116608083015260a081015161092860a084018263ffffffff169052565b5060c08101516104cb60c084018215159052565b6000610300820190508251825273ffffffffffffffffffffffffffffffffffffffff602084015116602083015260408301516109896040840182516bffffffffffffffffffffffff169052565b602081015173ffffffffffffffffffffffffffffffffffffffff8116606085015250604081015173ffffffffffffffffffffffffffffffffffffffff8116608085015250606081015173ffffffffffffffffffffffffffffffffffffffff811660a085015250608081015162ffffff811660c08501525060a0810151610a1460e085018260020b9052565b5060c0810151610a2a61010085018260020b9052565b5060e08101516fffffffffffffffffffffffffffffffff811661012085015250610100810151610140840152610120810151610160840152610140810151610a876101808501826fffffffffffffffffffffffffffffffff169052565b5061016001516fffffffffffffffffffffffffffffffff166101a08301526060830151610ab86101c08401826108c0565b5060808301516fffffffffffffffffffffffffffffffff166102a083015260a083015160ff9081166102c084015260c0909301519092166102e09091015290565b600060208284031215610b0b57600080fd5b815161045d8161086f565b6fffffffffffffffffffffffffffffffff818116838216019081111561015e577f4e487b7100000000000000000000000000000000000000000000000000000000600052601160045260246000fd",
  "linkReferences": {},
  "deployedLinkReferences": {}
}